{
  "contractName": "MockEtherPriceOracle",
  "abi": [
    {
      "constant": true,
      "inputs": [],
      "name": "price_",
      "outputs": [
        {
          "name": "",
          "type": "uint256"
        }
      ],
      "payable": false,
      "stateMutability": "view",
      "type": "function"
    },
    {
      "constant": false,
      "inputs": [
        {
          "name": "price",
          "type": "uint256"
        }
      ],
      "name": "setPrice",
      "outputs": [],
      "payable": false,
      "stateMutability": "nonpayable",
      "type": "function"
    },
    {
      "constant": true,
      "inputs": [],
      "name": "price",
      "outputs": [
        {
          "name": "",
          "type": "uint256"
        }
      ],
      "payable": false,
      "stateMutability": "view",
      "type": "function"
    }
  ],
  "bytecode": "0x608060405234801561001057600080fd5b50610117806100206000396000f3006080604052600436106053576000357c0100000000000000000000000000000000000000000000000000000000900463ffffffff16806391b7f5ed146058578063a035b1fe146082578063ce40b03f1460aa575b600080fd5b348015606357600080fd5b5060806004803603810190808035906020019092919050505060d2565b005b348015608d57600080fd5b50609460dc565b6040518082815260200191505060405180910390f35b34801560b557600080fd5b5060bc60e5565b6040518082815260200191505060405180910390f35b8060008190555050565b60008054905090565b600054815600a165627a7a723058209ab14dd119ede4a0a2a2b14f78813270edc0414b2d808cc1de3a06a854678d8f0029",
  "source": "pragma solidity ^0.4.15;\n\nimport \"./EtherPriceOracleInterface.sol\";\n\ncontract MockEtherPriceOracle is EtherPriceOracleInterface {\n    uint public price_;\n\n    function setPrice(uint price) public {\n      price_ = price;\n    }\n    function price() public constant returns (uint){\n      return price_;\n    }\n}\n",
  "sourcePath": "/app/contracts/MockEtherPriceOracle.sol",
  "compiler": {
    "name": "solc",
    "version": "0.4.24+commit.e67f0147.Emscripten.clang"
  },
  "schemaVersion": "2.0.1",
  "updatedAt": "2018-10-25T14:09:36.530Z"
}